:020000040800F2
:10000000900C002035020008534A0008C144000843
:10001000514A000899280008BD5800080000000057
:100020000000000000000000000000000352000873
:10003000612B0008000000001F4E00080552000858
:100040004F0200084F0200084F0200084F0200084C
:100050004F0200084F0200084F0200084F0200083C
:100060004F0200084F0200084F0200084F0200082C
:100070004F0200084F0200084F0200084F0200081C
:100080004F0200084F0200084F0200084F0200080C
:100090004F0200084F0200084F0200084F020008FC
:1000A0004F0200084F0200084F0200084F020008EC
:1000B0004F0200084F0200084F0200084F020008DC
:1000C0004F0200084F0200084F0200084F020008CC
:1000D0004F020008B15800084F0200084F02000804
:1000E0004F0200084F0200084F02000800F002F81B
:1000F00000F090F80AA090E8000C82448344AAF132
:100100000107DA4501D100F085F8AFF2090EBAE82F
:100110000F0013F0010F18BFFB1A43F0010318473B
:10012000C8700000E8700000103A24BF78C878C199
:10013000FAD8520724BF30C830C144BF04680C60ED
:10014000704700000023002400250026103A28BF35
:1001500078C1FBD8520728BF30C148BF0B60704739
:100160006E2900F01B83702900F07586662906F061
:10017000D382652906F0D082672906F0CD826129F5
:1001800006F0CC8203681B0A28BF41F08001692970
:1001900000F0CE80642900F0CB80752900F0C88083
:1001A0006F2900F00286782900F04186E92900F0E5
:1001B0009D85E42900F09A85F52900F09785EF29BF
:1001C00000F0FF85F82900F040860368DB0928BFAE
:1001D00041F08001632901F0B980732901F0BE80EC
:1001E000E32901F0C980F32901F0CE800020704797
:1001F0001FB500F08DFE04000020002105F0B0FDC9
:10020000401C60600020002105F094FDE0601FBDEF
:1002100010B510BD01F072F91146FFF7E9FF05F0C6
:1002200089FC01F015FC03B4FFF7F2FF03BC01F0F9
:1002300083FE00000948804709480047FEE7FEE7C3
:10024000FEE7FEE7FEE7FEE7FEE7FEE7FEE7FEE786
:1002500004480549054A064B7047000089520008CA
:10026000ED00000890060020900C0020900800206F
:10027000900800207CB51D4616460C00009001D069
:100280002044401E074B7B442A4669460190304675
:1002900000F0ADFC05461CB10020694600F0BAFC38
:1002A00028467CBD950900000FB47CB50C0009AA56
:1002B000009001D02044401E084B7B4469460190C9
:1002C000089800F094FC05461CB10020694600F037
:1002D000A1FC28467CBC5DF814FB0000610900000D
:1002E00070B5044685690068C10601D5302600E076
:1002F0002026C00707D070BDD4E9012130469047C1
:10030000206A401C20626D1EF6D570BD70B5044693
:1003100085690078C00707D170BDD4E9012120208C
:100320009047206A401C20626D1EF6D570BD00000B
:100330002DE9F0410646002410687529314616A5BE
:1003400010D000F097F9002802DA404213A507E028
:1003500031688A0701D512A502E0490704D511A525
:10036000012401E000F08FF900210A2206F12407A0
:1003700009E0B0FBF2FCB0FBF2F302FB1C003030F2
:1003800078541846491C0028F3D123462A463046A3
:10039000BDE8F04100F0A9B9000000002D00000008
:1003A0002B000000200000002DE9F05F8946044684
:1003B0004FF0000ADFF874B1FB44C0F820A02046DB
:1003C000E1688847002874D0252806D0D4E90121A7
:1003D0009047206A401C2062F1E700265F462046D5
:1003E000E16888472028054607DB312D05D27819BA
:1003F00010F8200C08B10643F1E7B00701D526F04C
:100400000406C4F81CA00027C4F818A02A2D09D09F
:10041000284605F0F8FA38B304EB8708303DC8F8F1
:10042000185019E059F8041B204604EB870291612B
:10043000E1688847012F054618D1E069002820DAD5
:1004400026F020061DE0D8F8180000EB800005EB30
:1004500040003038C8F818002046E1688847054653
:1004600005F0D1FA0028EED1012F0AD02E2D08D1A7
:100470002046E16888477F1C0546022F46F020068B
:10048000C4DBA069002803DA404246F00106A061FF
:10049000F00701D026F010066C2D0BD0682D09D086
:1004A0004C2D39D06A2D35D0742D35D07A2D33D0DE
:1004B00016E038E0E1682F4620468847B8420546F6
:1004C00009D16C2F26D04FF48060E16806432046A6
:1004D0008847054604E06C2F1AD04FF4807006431D
:1004E0000DB3A5F14100192802D8203546F4006665
:1004F0004A462946204626604E46FFF731FE80B127
:1005000001280BD0F61D26F0070000F1080956E778
:100510004020E4E78020D8E70020D6E706F1040970
:100520004DE7284652E7206ABDE8F09F2C6D000099
:1005300040EA010370B59B072ED14FF00136042A23
:100540002AD308C810C99D1B9D43121F15EAC61562
:1005500017D0D8B2E1B2401A50EA056110D198B272
:10056000A1B2401A50EA05410AD123F07F4024F09D
:100570007F41401A50EA052102D1180EA0EB146009
:1005800070BDA342DBD018BA21BA884201D901203C
:1005900070BD4FF0FF3070BD0AB9002070BD10F87B
:1005A000013B11F8014B63B1A3420AD1521E08D09E
:1005B00010F8013B11F8014B1BB1A34201D1521EAF
:1005C000EDD1181B70BD4FF000020429C0F012805D
:1005D00010F0030C00F01B80CCF1040CBCF1020FF6
:1005E00018BF00F8012BA8BF20F8022BA1EB0C01CB
:1005F00000F00DB85FEAC17C24BF00F8012B00F8C1
:10060000012B48BF00F8012B70474FF0000200B5E6
:10061000134694469646203922BFA0E80C50A0E825
:100620000C50B1F12001BFF4F7AF090728BFA0E8D3
:100630000C5048BF0CC05DF804EB890028BF40F89F
:10064000042B08BF704748BF20F8022B11F0804FE1
:1006500018BF00F8012B704770477047704710B5FE
:1006600000F05AFC006810BD10B5044600F054FCC0
:10067000046010BD09684A0501D540B27047C9053C
:10068000FCD500B2704709684A0501D5C0B2704771
:10069000C905FCD580B2704770B50C460546012AE5
:1006A00005D02878800600D5EA69002302E00123FE
:1006B00005E05B1C934202D2E05C0028F9D1A869F6
:1006C000E618C01AA861286A184428622846FFF76D
:1006D00007FE04E0D5E9012114F8010B9047B4426C
:1006E000F8D32846FFF712FE70BD2DE9F0470D46FE
:1006F00099469246044600F124080168880604D50C
:10070000E06921F01001216000E00120A84201DD34
:10071000471B00E00027A1697A1902EB0900081ABB
:10072000A0612078C00602D42046FFF7D9FD00263C
:1007300008E0D4E901211AF806009047206A401C1D
:10074000761C20624E45F4DB2078C0060AD5204690
:10075000FFF7C6FD06E0D4E9012130209047206A6A
:10076000401C2062381EA7F10107F4DC07E0D4E941
:10077000012118F805009047206A401C2062281EBD
:10078000A5F10105F3DC2046FFF7C0FD2078000647
:1007900002D50220BDE8F0870120FBE7116802685E
:1007A000006A530501D508700AE0D30501D5088019
:1007B00006E0130603D5C217C1E9000200E0086095
:1007C0000120704770472DE9FF4F0C461E464FF041
:1007D000FF378BB0D2E90001DDF860800A908A46CD
:1007E000C1F30A5505B93D46002108464FF0000007
:1007F000BAF1000F00F4400005DA00EB80004FF47E
:10080000400101EA50004FEA9059B9F1010F00DDB3
:10081000B9460A9850EA4A000ED044F61050A5F2A4
:10082000FF3545432F14B8F1000F1ED07542291E25
:100830001EDDC9F100021CE0B8F1010F4FF000000D
:1008400001D0302103E0F24305E02154401CB042C6
:10085000FBDB30460022002121540B99C1F80880AF
:10086000C1E900200FB0BDE8F08FBD1B6D1CDEE7B5
:100870004A4600DA694206A800F0AAFD06AB93E8F2
:10088000070003AB83E8070050460A9901F07CFBA0
:100890008DE80700A0F500501F3800900398002D48
:1008A0000ADD42F21F014A460844002303A90390CF
:1008B000684601F027FE09E0A0F500504A461F38BF
:1008C000002303A90390684601F046FE8DE8070067
:1008D0000004000C03D04FF0FF30410800E0104648
:1008E000B8F1000F03D00022009215461EE0751EDD
:1008F00005D400F015FB303262556D1EF9D5B346B4
:100900000122084302D000227F1C04E02078302816
:1009100001D100227F1E002A099784D01DE0112DED
:1009200007DA00F0FDFA303262556D1C50EA010220
:10093000F5D1084302D00098C8B10EE00021681E2E
:1009400005E0235C625C63542254401E491C8142D2
:10095000F7DBAB46A81B401E0990002004F80B00F3
:100960000B98099AC0F80880C0E9002B7AE7112695
:100970004FF0000857E72DE9F04F88460446D21D96
:1009800022F0070191B0D1E90001CDE90A0104F09C
:1009900096FF02460B98C00F01D02D2007E020687B
:1009A000810701D52B2002E0202101EAC000032AA3
:1009B000099001D0072A05DB03464146204600F096
:1009C0007BFC0BE12078800601D5E06900E0062081
:1009D000B8F1650F814606D0B8F1660F18D0B8F1AE
:1009E000670F70D131E00020B9F1110F009001DBE9
:1009F000112301E009F101030AAA01A90CA8FFF7DC
:100A0000E2FEDDE90C70002609F10105834647E0AE
:100A100001204B4600904FF000470AAA01A90CA8FC
:100A2000FFF7D1FEDDE90DB00C995D46002610B947
:100A300009F101000D18B9EB050003D4C0F1FF3630
:100A400009F10105A5EB09002BE0B9F1010F01DA6D
:100A50004FF001090020B9F1110F0090484601DD67
:100A6000112300E003460AAA01A90CA8FFF7ABFE78
:100A7000DDE90C704D4600268346207800070AD435
:100A8000AB4500DA5D4601A8012D04DD411911F8DE
:100A9000011C302907D04F4502DA17F1040F04DAA0
:100AA000012082460FE06D1EEEE7002F02DCED1BF9
:100AB0003E4403E0781CA84200DD7D1CB81B00F119
:100AC000010A4FF000472078000703D4AA4501DB54
:100AD0004FF0FF3A0021B7F1004F0DF143088DF8B8
:100AE000431024D002202B23002F01DA7F422D2334
:100AF0000A21021EA0F1010000DC5FB197FBF1FCAE
:100B000097FBF1F201FB1C7C17460CF1300C08F846
:100B100001CDEEE7A8F1010003702188090501D598
:100B2000452100E06521A0F1010800F8011C0998A9
:100B30000FA9A1EB0807FF1D00B10120411901EB2E
:100B4000EA70A1693844081A401EA0612078C006E6
:100B500002D42046FFF7C4FB099828B1D4E901214B
:100B60009047206A401C20622078C00622D520468B
:100B7000FFF7B6FB1EE0002E04DBB34502DD01A843
:100B8000805D00E03020D4E901219047206A401CBC
:100B90002062761CAAF101005FEA000A0AD100F087
:100BA000B7F9C0680168405CD4E901219047206A28
:100BB000401C2062281EA5F10105DCDC07E0D4E919
:100BC000012118F8010B9047206A401C2062381E52
:100BD000A7F10107F3DC2046FFF798FB032011B0D3
:100BE00041E6000001694A1C02610878704700B5BF
:100BF0008FB0CDE901310021059105497944CDE956
:100C0000031011466846FFF7CFFB0FB000BD000090
:100C1000E5FFFFFF0A6802F8010B0A607047D1E99F
:100C200000239A4202D2531C0B60107070470000E0
:100C30002DE9FF5F15468A460446DFF8AC80F8448C
:100C40000027D8E900103E46CDE9001010E03AF840
:100C500016106A4602A800F02DFC411C07D021782E
:100C6000890603D5E269391891420DD80744761CEC
:100C70002078800602D5E069B84205DDAE42E6DBA9
:100C80003AF816000028E2D1A069C01BA0612046F6
:100C9000FFF726FBD8E90010CDE90010002017E08F
:100CA0003AF818106A4602A800F004FCB0F1FF3FC1
:100CB00081460BD000250DF1080B05E0D4E9012198
:100CC0001BF8050090476D1C4D45F7D308F1010056
:100CD000B0428046E4DB206A384420622046FFF7B9
:100CE00015FBBDE8FF9F0000BA6400002DE9F0414C
:100CF0008046D21D22F007020025D2E90002F52924
:100D000015A614D0011E72F1000106DA0023D0EB03
:100D1000030063EB020211A608E0D8F800108B076D
:100D200001D50FA602E0490701D50EA601251146FF
:100D3000002408F1240704E000F0F2F830323A55BC
:100D4000641C50EA0102F7D12B4632462146404648
:100D5000BDE8F041FFF7C9BC000000002D00000015
:100D60002B0000002000000030B4002100F124041A
:100D700008E002F00705D208303542EA4372DB088A
:100D80006554491C52EA0305F3D10468002310A2FC
:100D9000250707D5A40600D421B1C46901230DA2FB
:100DA000641EC46130BCFFF7A0BC10B504462146E8
:100DB0001068FFF768FC02462046BDE8104000239B
:100DC000D2E7D21D22F00701D1E90023CCE70000D1
:100DD0000000000030000000F0B40D460188090555
:100DE00002D5214C7C4402E01F4C7C440E3400218F
:100DF00000F1240608E002F00F071209E75D42EA5D
:100E000003721B097754491C52EA0307F3D1027895
:100E10000023120704D5702D06D009B10223113426
:100E20002246F0BCFFF761BC01231034F8E770B52F
:100E300004460D4621461068FFF725FC0246294668
:100E40002046BDE870400023C6E7D21D22F007030C
:100E5000D3E90023C0E70368126843F0200303606E
:100E60000823C3610023B7E71C6300000FB400230D
:100E700000B589B00CA900910B99CB60214B7B4444
:100E80000693214B7B44079304236FF00042CDE986
:100E900001321E4A7A446B4608920246002005F051
:100EA000C5FC09B05DF814FB70B506464FF0FF3085
:100EB00015460C46324686B00091CDE901016946DF
:100EC0000020049004A8FFF7D1FF024604982118DF
:100ED00025B108B1084600E02046286004980028A3
:100EE0000DD0002A02DD0098884208D03246081B47
:100EF00069460094CDE9010404A8FFF7B7FF06B0E6
:100F000070BD00000F050000270500001301000060
:100F1000004870474C060020004870472C0600200F
:100F200030B5B0F10A024FEA900E71F100034EEABB
:100F3000817EB0EB0E0061EB91014FEA101E4EEA8C
:100F4000017E10EB0E0041EB11114FEA102E4EEA1C
:100F5000016E10EB0E0041EB11214FEA104E4EEAEC
:100F6000014E10EB0E0041EB1141401841F1000120
:100F70004FEAD00040EA41704FEAD10110EB800502
:100F80004FEA810444EA907444EB01046D1944EB88
:100F90000404521BA3414FF0000348BF0A3200D59E
:100FA00030BD401C41F1000130BD10B5044600F0D9
:100FB000CBFA0068005D00F0010010BD2DE9F04F94
:100FC00004460D46D21D22F0070089B0D0E90097F3
:100FD0004846394604F073FC0246F80F01D02D2331
:100FE00007E02068810701D52B2302E0202101EAD8
:100FF000C0038DF820300BB1012000E00020032A4F
:10100000824601D0072A04DB2946204600F054F925
:101010003FE12078800601D40D2500E0E569C7F3A3
:101020000A560D2D49DA00214FEA175B08464FF0AA
:101030000000002F00F4400007DA00EB80004FF4BE
:10104000400100EBD07001EA60008115012901DD4B
:101050004FF0FF3100224FEA850CBCF1180F06D388
:101060001346ACF118004FF08052C24003E04FF439
:10107000801323FA0CF30CF10C0CBCF1200F04D3F9
:10108000ACF1200C09FA0CF001E007FA0CF0002991
:101090004FF0004801DD18B90FE00ED140450CD3E8
:1010A00019EB02095F4121B9404502D19F4329EA6A
:1010B0000209BBEB175F00D0761C2088000502D523
:1010C0007B48784402E07A487844193808AA3023EB
:1010D00002F80A30037C0AF10101002E0AF1020A2B
:1010E00053546A4602DC4FF0300101E04FF0310109
:1010F0004FF001088DF8001002D0A6F2FF3603E091
:1011000059EA470100D06B4E002D02DC2178090717
:1011100004D54FF002082E218DF80110C44600219D
:101120000BE0C7F303433F01C35C491C6D1E02F88B
:101130000830052908F1010801DA002DF1DC002151
:101140000CE000EB1973491C1B786D1E082902F88E
:1011500008304FEA091908F1010801DA002DF0DC26
:1011600021688B0602D516E0A8F10108E04505DDEF
:1011700002EB080313F8013C302BF5D0B8F1000F57
:1011800009DD02EB080313F8013C2E2B03D10907FC
:1011900001D4A8F10108002D05DD3E2102F8081058
:1011A0006D1E08F10108407C002E02F8080008F1CD
:1011B000010804DA2D20764202F8080002E02B2014
:1011C00002F808000A214FF47A70864208F10108FB
:1011D0000BDB96FBF0F3303302F8083096FBF0F3AC
:1011E00008F1010800FB136601E0642E0CDB6420AB
:1011F00096FBF0F3303302F8083096FBF0F308F179
:10120000010800FB136601E00A2E06DB96FBF1F0F5
:10121000303002F8080008F1010896FBF1F001FBFC
:101220001060303002F80800A16908F1010808EBED
:10123000050202EB0A00081AA0612078C00602D459
:101240002046FFF74DF8216A08AE01EB0A00206244
:1012500004E0D4E9012116F8010B9047BAF1010A24
:10126000F7D22078C00602D52046FFF739F86E463F
:1012700009E016F8010B3E280FD0D4E90121904770
:10128000206A401C2062B8F10108F2D22046FFF724
:101290003DF809B00320BDE8F08F206A28442062A1
:1012A00003E0D4E90121302090476D1EEBD3F8E72D
:1012B0007960000002FCFFFF2DE9F0411F46044663
:1012C00003260168072A01F4006004DB08B116A5B3
:1012D00005E016A503E008B115A500E015A521F06D
:1012E00010002060A069C01EA0610FB1401EA06167
:1012F0002046FEF7F5FF4FB1D4E90121384690476B
:10130000206A401C2062C01C206206E0206AFAE7C6
:10131000D4E9012115F8010B9047761EF8D220463A
:10132000FEF7F4FFBDE8F0814E414E006E616E00A5
:10133000494E4600696E660010B5436913B1AFF3BC
:10134000008001E0FFF7A8F9012010BD127800F13C
:1013500024010A7000224A700122EDE711684FF063
:10136000FF32E9E710B5436913B1AFF3008001E044
:10137000FFF75EFC012010BD128800F12401828479
:101380000022C2840122EDE711684FF0FF32E9E745
:10139000426842B1016811F8013B23B1521EC0E915
:1013A0000012184670470121C160881E70474268CC
:1013B0005AB1C368016843B983688B4205D0491E9E
:1013C000521CC0E90012002070474FF0FF307047F8
:1013D0002DE9F047814616468AB0354878440DC855
:1013E0008DE80D0032487844801C03AC0DC884E8B9
:1013F0000D0041F69B300844372190FBF1F290FB41
:10140000F1F5A5F1800501FB12041B3C02D56442F5
:10141000012000E00020DFF898A080460027FA4471
:10142000AAF1BE0A0EE0E0070AD03246684607EB92
:10143000470101230AEB810101F08EF88DE80700D6
:1014400064107F1C002CEED1194F7F44AE3F19E091
:10145000E80715D007EB04100DF1180A90E80E000C
:101460008AE80E00C068F04201D19819089032460F
:10147000012306A903A801F06FF803AB83E8070076
:101480006D10641C002DE3D14FF001033246694614
:10149000B8F1000F03A802D001F034F801E001F028
:1014A0005BF8C9E90001C9F808200AB0BDE8F08777
:1014B000F05D000070B516460C46054600F044F895
:1014C000036893F80101012806D0FF2C0FD8185D9E
:1014D00068B101202C7070BDD3F807013246214657
:1014E00003F2071303442846BDE8704018474FF045
:1014F000FF3070BD004870472C0600207546FFF78E
:10150000F9FFAE4605006946534620F007008546C0
:1015100018B020B5FEF79CFEBDE820404FF0000655
:101520004FF000074FF000084FF0000B21F00701CB
:10153000AC46ACE8C009ACE8C009ACE8C009ACE80E
:10154000C0098D467047000010B5FFF7E1FC001D93
:1015500010BD00BF0D4800002DE9FF4F06468BB0BF
:101560000878FF2806D0491C2D2805D000244FF00C
:10157000000908E000200CE00124F8E709EB8903EA
:10158000491C00EB43090878FF28F7D114B1C9F1D1
:1015900000008146107800252C46AA4629462D28B1
:1015A00001D02B2804D1521C2D2813D000208246B4
:1015B0008B461078FF280FD04FF0000C0A21521CE8
:1015C000A5FB017804FB018105FB0C11C5194BEB50
:1015D0000104EEE70120EAE7002108464FF0000091
:1015E000BAF1000F02D000EB80004008C0F3815731
:1015F000012F01DD4FF0FF370E9955EA040009EB8A
:1016000001080BD04FF0020918F5FA7F16DA4FEAFD
:10161000CA70002F706008DD012007E04FEACA7031
:10162000C6E900B00FB0BDE8F08F00203060FFF7D2
:1016300073FCC0F800901821084616E0B8F5FA7F50
:1016400018DD002F02DAF748784401E0F6487844C4
:10165000D0E90010C6E9001040EACA707060FFF7D8
:101660005BFCC0F80090142108460FB0BDE8F04FB5
:1016700005F04FB8002108464FF00000B8F1000116
:10168000099002DAC7F1000200E03A4601DAC8F137
:10169000000106A8FFF79CFE06AB93E8070003AB2A
:1016A00083E8070044F23E005BEA040100905846DC
:1016B00004D144F21E012C465D460091210C090420
:1016C000014306D10099240444EA15442D0410393D
:1016D000009104F07F41014306D10099240244EABD
:1016E00015642D020839009104F07041014306D1C0
:1016F0000099240144EA15742D01091F009104F09A
:101700004041014306D10099A40044EA9574AD001C
:10171000891E009104F00041084304D100986D191E
:101720006441401E00904FF001033A466846B8F10C
:10173000000FCDE9014503A902DD00F022FF01E021
:1017400000F0F5FEBAF1000F04460D4601D084F01A
:101750000044002108464FF00000099940F2FF774D
:10176000484010F00C0F07D124F00040284303D06C
:10177000C4F30A50B84212D1FFF7CEFBC0F8009074
:10178000C4F30A50B8420AD1A8487844D0E90010FE
:10179000C6E9001004F000410843706042E7C6E962
:1017A00000543FE72DE9FF4F1F464FF0000A4FF06E
:1017B000FF38454691B0D7E90146CDF83CA0FFF788
:1017C000A7FBC0680168405C1090B96912986D1C55
:1017D0008847396A814688470028F6D1B9F1FF3F2A
:1017E0000AD0002E24F4D06411DDB9F12B0F08D0FB
:1017F000B9F12D0F0BD102E0404615B013E744F4C8
:101800008064B96912986D1C8847761E8146600510
:1018100004A901D52D2000E02B20002E01F1010BA1
:101820000DF130088DF810003FDDB9F1690F08D0D7
:10183000B9F1490F05D0B9F16E0F02D0B9F14E0FD1
:101840001CD13B4601A8009580E85002DDE9121248
:101850006FF0020004F0EEFFC11CCED10EE0B969BA
:1018600012986D1C884781461398761E44F40074C4
:1018700005600F98401C002E0F9016DDB9F1300F57
:10188000EDD0B9F1780F02D0B9F1580F0DD10F9802
:1018900001280AD13B46CDE90054DDE91212001FB0
:1018A000029604F0C5FFC11CA7D1109989453ED10D
:1018B00044F0800406E01399681CAAF1010A44F47C
:1018C00000740860B9696D1C1298761E884730282C
:1018D0008146F0D02BE01099894505D1200603D42C
:1018E000761E44F0800418E0484604F08CF808B3F3
:1018F000761E0DF123018B4544F4007408D2A9F142
:1019000030000BF8010B200607D5AAF1010003E017
:10191000200602D40AF101008246A00502D51399DF
:10192000681C0860B96912986D1C88478146002EB2
:10193000D1DC53E0002E51DDB9F1650F02D0B9F1D1
:10194000450F4BD1A00549D5B9696D1C1298761E7B
:1019500024F440748847002E81460CDD2B2804D0E7
:10196000B9F12D0F07D144F48074B96912986D1C38
:101970008847761E8146E00501D52D2100E02B2108
:1019800008F8011BCDF8008021E0761E0DF1390129
:10199000884544F400740CD2A9F1300010F0FF0027
:1019A00088F8000002D10099884509D908F101089A
:1019B00006E0E00501D51E4801E042F20F708246C4
:1019C000B96912986D1C8847814613980560002EEE
:1019D00004DD484604F017F80028D6D1F9691298BA
:1019E0008847FF2053468BF8000088F8000000204D
:1019F0000A900B9004AA0CA90AA8FFF7ADFDA00558
:101A000002D46FF00100F8E614F0240F12D0E007C2
:101A10001CD13868DDE90A12031D3B600068C0E98B
:101A2000001213E0C45B0000B65B00007A5A0000AD
:101A3000F1D8FFFF0AA9684603F074FFE00705D15B
:101A40003868009A011D3960006802602846D4E6B3
:101A500010B50446AFF300802046BDE81040FEF705
:101A6000E2BB00004FF0013C50F8042B51F8043B5E
:101A70009A4221D1A2EB0C03934313EACC1317D162
:101A800050F8042B51F8043B9A4215D1A2EB0C03F9
:101A9000934313EACC130BD150F8042B51F8043BB9
:101AA0009A4209D1A2EB0C03934313EACC13DBD087
:101AB0004FF00000704700BFD01A01BAB1FA81F1AF
:101AC00001F0180122FA01F0CB40C1F12001DBB294
:101AD000C0B2C01A2CFA01F3D11A914311EAC31112
:101AE000E6D170472DE9FF4F1F464FF03C0987B004
:101AF0004FF00042DDE9141001F10108DDF858A0B3
:101B000002EA4050039000200590834605460446B3
:101B10000490B969461E08988847AAF1010A029004
:101B2000BAF1000F3BDD02982E2815D0102100F0ED
:101B30001CFA00282EDB4FF0010B0599014317D04A
:101B4000B9F1000F0BDB4A46C11700F0FBF9054362
:101B50000C43A9F1040905E0012004900BE008B151
:101B600045F0010501200590049820B9361D02E0DA
:101B7000049800B1361FB969089808F10108884730
:101B8000BBF1000FAAF1010A0290C9D00999C1F86E
:101B90000080C5E70298702808D0502806D0F9695F
:101BA00008988847BBF1000F14D04FE00020029046
:101BB0000120BBF1000F049009D0B969089808F121
:101BC00001088847AAF10109B9F1000F07DCF9699A
:101BD000089888476FF001000BB0BDE8F08F2B2804
:101BE00004D02D280CD14FF0FF300490B96908982B
:101BF00008F101088847A9F10109B9F1000FE6DDF4
:101C0000411CE4D00A2100F0B0F90028DFDB029982
:101C100008F1010801EB810100EB41000290B96974
:101C2000089888470A2100F0A0F9099AA9F101094A
:101C3000B9F1000FC2F8008001DD0028E7DAF96988
:101C4000089888470499029800FB016655EA040049
:101C500004D004F04041090002D006E0039898E067
:101C6000A40044EA9574AD00B61E04F000410800DB
:101C700002D16D196441761E159810F0240F03D01F
:101C80004FF00B095C4803E04FF028096FF07D002E
:101C90008246564507DAAAEB06018944B9F1410F9D
:101CA00001DD4FF0410901200021A9F1010200F0FE
:101CB00049F9024628400B462140084301D0012142
:101CC00000E00021501E029143F1FF3128402140E5
:101CD000084301D0012000E000200299834651EA28
:101CE0000B014FD0002108464FF00000039900F48B
:101CF000400039B100EB80004FF4400100EBD070A0
:101D000001EA60008015012802DD4FF0FF3000E09D
:101D100013D0401C36D0029860B3BBF1000F0CD139
:101D20004A460120002100F00DF9284021400843D7
:101D300001D0012000E00020E0B101204A4600214E
:101D400000F000F9034640190A4661412D1A8C4102
:101D500011D3B9F1400F09DD159810F0240F02D00E
:101D6000AAF1340603E0AAF1170600E0761C00256C
:101D70004FF0004406E05B1E42F1FF3220EA03050B
:101D800021EA0204CAF10100B04206DA1B490398B5
:101D900008430190002000900EE0039AC4F3D32181
:101DA000E80A0A43164940EA44500A433146CDE95D
:101DB0000002684603F01CFE159810F0240F0BD0AB
:101DC0001598C00715D13868DDE90012031D3B6086
:101DD0000068C0E900120CE002A8694603F0A2FD09
:101DE0001598C00705D13868029A011D396000684E
:101DF00002604046F0E6000002FCFFFF0000F07FBA
:101E00000000F03F2DE9FF4F92461D4685B04FF090
:101E10000041DDE9124BDDE914727F1E01EA4B50EF
:101E2000414940F0FF4940EA0108002122F020002A
:101E30004928049102D04E2828D04CE03BA001262E
:101E400007C88DE80700A9690698641C88477F1EAB
:101E5000014606D41DF8060018B121F02001814288
:101E60000BD0E96906988847032E34D0082E32D06B
:101E70006FF0010009B0BDE8F08F761C032E01D091
:101E8000082EE0D1601CCAF80000DCE7A9690698BA
:101E9000641C88477F1E2AD420F02000412826D1C8
:101EA000A9690698641C88477F1E20D420F0200072
:101EB0004E281CD1A9690698641C88477F1E48F4E7
:101EC000002849F48009CAF8004001D4282806D027
:101ED000E969069888475FEACB7012D022E0A969C9
:101EE0000698641C88477F1E01D4002803DAE9693C
:101EF00006988847BCE72928F1D1641CCAF800403D
:101F0000E9E71BF0240F07D028680499031D2B6014
:101F10000068C0E9001805E02868021D2A60006812
:101F2000C0F800902046A5E70000F07F494E4649E2
:101F30004E4954590000000001491820ABBEFEE78D
:101F400026000200B2F120030AD5C2F1200301FAF3
:101F500002F120FA03F300FA02F041EA03017047AC
:101F600000FA03F14FF0000070473A2800D23038F1
:101F700020F02002412A01D3A2F13700884201D388
:101F80004FF0FF30704770475FEA400C08BF91F098
:101F9000000F4FEA8C234FEAC12243EA51514FEA26
:101FA0001C5018BF00F5F0404FEA300018BF41F058
:101FB00000415FEA6C5C00F02980BCF1FF3F08BF84
:101FC00040F080407047130C06BF12044FF0100C15
:101FD0004FF0000C130E04BF12020CF1080C130F8B
:101FE00004BF12010CF1040C930F04BF92000CF11A
:101FF000020CD30F04BF52000CF1010C11464FF03C
:102000000002A0F11F00A0EB0C00704711F0004F80
:1020100008BF704731F000413FF4D5AF0B0C06BF4D
:1020200009044FF0100C4FF0000C0B0E04BF090216
:102030000CF1080C0B0F04BF09010CF1040C8B0F01
:1020400004BF89000CF1020CCB0F04BF49000CF156
:10205000010CCCF12003A0EB0C0022FA03F302FAEE
:102060000CF241EA030100F10100704720F07F4CBF
:1020700080EA030023F07F47ACEB070303F57C53B2
:1020800000F0004003F1FF032DE980494FEA154BB2
:1020900009B44FEA144325EA0B4E24EA03480FF231
:1020A000042606EB132749083E785FEA320203FB59
:1020B0000667C7F5000707FB06F64FEA54374FEAF5
:1020C000D64606F1020607FB066CCCF1005C4FEA2F
:1020D0001C472CEA074C07FB06F40CFB06F504EB47
:1020E00015464FEA961634BF00204FF000404FEAE5
:1020F000D13706FB07FC4FEA1C4C0CFB0BF7D21B3D
:1021000003FB0CF761EB07010CFB0EF7B0EB07408C
:1021100072EB17420CFB08F734BFA2EB0742B2EB9D
:10212000074261EB17414FEA0C444FEA910706FB67
:1021300007FC4FEA1C4C0CFB0BF7B0EBC74072EBF3
:10214000573203FB0CF734BFA2EBC742B2EBC742D6
:1021500061EB57310CFB0EF7B0EBC70072EB577217
:102160000CFB08F734BFA2EBC702B2EBC70261EB6E
:102170005771039F4FEA816141EA921104EBCC044D
:102180004FEAD1374FEA826206FB07FC42EA90121F
:102190004FEA80604FEA1C4C0CFB0BF7D21B03FB91
:1021A0000CF761EB07010CFB0EF7B0EB074072EB8D
:1021B00017420CFB08F734BFA2EB0742B2EB074211
:1021C00061EB17414FEA8C554FEA910704EB9C24D1
:1021D00006FB07FC4FEA1C4C0CFB0BF7B0EBC740AF
:1021E00072EB573203FB0CF734BFA2EBC742B2EBE2
:1021F000C74261EB57310CFB0EF7B0EBC70072EB37
:1022000057720CFB08F734BFA2EBC702B2EBC70250
:1022100061EB577115EB4C254FEA816141EA921150
:102220004FEA82624FEAD13742EA901206FB07FC7E
:1022300044F100044FEA80604FEA1C4C0CFB0BF7A2
:10224000D21B03FB0CF761EB07010CFB0EF7B0EBA5
:10225000074072EB17420CFB08F734BFA2EB0742B2
:10226000B2EB074261EB174115EB1C154FEA8131C8
:1022700041EA92414FEA823242EA90424FEA80308C
:102280004FEA0C7644F1000448EA03434EEA0B4857
:102290004FF0000EB2EB080C71EB030724BF62464F
:1022A00039464EEB0E0E4FF0000B001852414941DB
:1022B0004BEB0B0BB2EB080C71EB03077BF1000B44
:1022C00024BF624639464EEB0E0E4FF0000B00184D
:1022D000524149414BEB0B0BB2EB080C71EB03077E
:1022E0007BF1000B24BF624639464EEB0E0E51EADD
:1022F000020718BF46F0010616EB0E7655F10002F4
:1023000054F1000103D5BDE88901BDE80088BDE8AE
:102310008901BDE80048B619524141EB0101A3F122
:102320000103704780807F7E7D7C7B7A7978777629
:1023300076757473727171706F6E6E6D6C6C6B6AA2
:102340006A69686867666665646463636261616040
:10235000605F5F5E5E5D5D5C5C5B5B5A5A595958BD
:102360005857575656555555545453535252525127
:10237000515050504F4F4F4E4E4D4D4D4C4C4C4B7D
:102380004B4B4A4A4A4949494848484747474746C4
:102390004646454545444444444343434342424200
:1023A0004241414146EA0646A3F570534FEA1646BC
:1023B00046EA42564FEAD22242EA415210B54FEA6B
:1023C000D121A3F1010300F02FF820F0004000F12B
:1023D000020C00F0004701EB00501146BCF5006F05
:1023E00040EA070000D210BDBAF1000F0AD01CB5B8
:1023F00003B44FF004004FF004014FF000000FBC95
:10240000BDE810404FF00001BBF1010FB9BF044817
:102410004FF0FF310348002140EA070010BD00BF24
:10242000FFFFEF7F0000F07F002B9C4630D4770049
:102430002BD01CB54FEA370703B44FF010004FF014
:102440001001BAF1000F06D0BCF1000FDCBF40F064
:10245000080040F008014FF000000FBCBDE810403C
:102460000BF1010BBBF1010F08BF5FEA170722BF99
:1024700012F1010211F101014FF0004143F100039B
:1024800000F0004043EA00007047F9D35708D0E756
:1024900046EA064613F1400F4FEA16461FDD13F1D8
:1024A000200FDFBF16430A46002120335B42BED017
:1024B000C3F1200746EA064602FA07F74FEA164636
:1024C00046EA0706C3F1200722FA03F201FA07F7EA
:1024D00021FA03F14FF0000342EA0702A7E746EAB8
:1024E000020646EA06464FEA164646EA0106BCBF21
:1024F00046EA0646360C4FF000034FF000024FF05C
:10250000000194E72DE9804C9A46934670B491E817
:10251000380007C831EA400C48BF34EA430C03D501
:10252000FFF7A4FDFFF780FFF0BCBDE8008C2DE9AC
:10253000804C9A46934670B491E8380007C831EA57
:10254000400C48BF34EA430C03D5FFF78FFDFFF77B
:1025500029FFF0BCBDE8008C2DE9804C9A469346DB
:1025600070B491E8380007C810F0804F08BF13F02E
:10257000804F03D100F01AF8FFF756FFF0BCBDE81A
:10258000008C2DE9804C9A46934670B491E838004F
:1025900007C810F0804F08BF13F0804F03D100F040
:1025A00005F8FFF7FFFEF0BCBDE8008C20F07F4788
:1025B00080EA030023F07F4C07EB0C03A3F57C5368
:1025C00000F00040A3F1FE0392F0000F00F0B38092
:1025D00095F0000F00F077802DE901494FEA114096
:1025E0004FEA144621EA004800FB06FC24EA0647AD
:1025F00008FB06F607FB08F800FB07F718EB064890
:102600004CEB164C4FEA124B18EB07484FEA1546B5
:102610004CEB174022EA0B4E0BFB06FC25EA064763
:102620000EFB06F607FB0EFE0BFB07F71EEB064E36
:102630004CEB164C4FF000061EEB074E4CEB174BC5
:1026400018EB0B0840F1000018EB0E0B58EB0008DC
:1026500040F100008F1A4FF000013CBFC943661BD8
:1026600014BFB5EB040C00213CBFC943F61B4FEA75
:1026700017444EEA8E0E27EA04454FEA1C4704FB36
:1026800007622CEA074C05FB07F70CFB05F604FB79
:102690000CFC16EB074642EB174216EB0C4642EBDE
:1026A0001C421BEB060658EB0202414146EA9E061D
:1026B00001D5BDE80189B619524141EB0101A3F1F1
:1026C0000103BDE801894FEA14454FEA114724EAA6
:1026D000054621EA074C05FB07F406FB07F70CFB50
:1026E00006F105FB0CFC11EB074144EB17444FEAE4
:1026F000124711EB0C4144EB1C4422EA074C05FB4A
:1027000007F206FB07F70CFB06F605FB0CFC16EBC5
:10271000074642EB174216EB0C4642EB1C456A1883
:1027200054F1000148BF7047B619524141EB010115
:10273000A3F10103704795F0000F37D04FEA114223
:102740004FEA144721EA024624EA074C02FB07F14C
:1027500006FB07F70CFB06F402FB0CFC14EB07442A
:1027600041EB17414FEA154714EB0C4441EB1C4178
:1027700025EA074C02FB07F506FB07F70CFB06F6FC
:1027800002FB0CFC16EB074645EB174516EB0C4617
:1027900045EB1C42121951F1000148BF7047B619B0
:1027A000524141EB0101A3F1010370474FEA144587
:1027B0004FEA114724EA054621EA074C05FB07F1D9
:1027C00006FB07F70CFB06F24FF0000605FB0CFCBE
:1027D00012EB074241EB174112EB0C4251EB1C414B
:1027E00048BF7047921841EB0101A3F10103704704
:1027F0002DE9F047264CE168A06803F015FFB0F51D
:10280000000F01DB054601E080F00045207801283B
:1028100002D02078032806D1606A40F6B831884299
:1028200003D2401C6062BDE8F0870127DFF86490A6
:1028300000264FF48078B5F1804F0BDCE662A6628B
:102840002078032800D12770A0780028EBD0A6704C
:10285000012217E0A16A11F0FF4F03D0284603F0D0
:10286000A7FD02D2C4E90A56DDE7E06A401CE06237
:10287000B0F5967FD7D303202070A0780028D2D15E
:10288000A770002241464846BDE8F04700F0B3BBC0
:102890000C00002000080140FEE7000010B50021F8
:1028A000064801F097FB0421044801F093FB03481C
:1028B0000021026851630068816310BD9C050020FF
:1028C0002DE9F041044608461F4A642605270025E5
:1028D0001E491F4B904201DD104606E01D4A9842FA
:1028E00001D9184615E088420EDD0121217003F060
:1028F00013FDC0B26070642801D9667002E005283B
:1029000000D26770A57014E0904202D825706570FF
:10291000F8E7FF21217080F0004003F0FDFCC0B219
:10292000A070642801D9A67002E0052800D2A77023
:10293000657094F90000012804D0A178BDE8F04149
:1029400000F00AB86178F9E70000C8420000A04032
:102950000000C8C20000A0C04FF4E15251436422FD
:10296000B1FBF2F18AB210B54FF4E1518A4200D9BD
:102970000A460849002301280C6803D0401C636301
:1029800004D000E062630868836310BD0868826356
:1029900010BD00009C050020054A00211368596302
:1029A00012689163002802D00170417081707047F5
:1029B0009C0500200C4810B50168CA010B4909D4D8
:1029C000026842F08072026000204860086840F0AF
:1029D00001000860486800F071F8012000F004FA76
:1029E000BDE8104000F051B8FCED00E0001000E040
:1029F0002DE9F04100252C465FF0010700F072F848
:102A0000022003F01DF800F059F8022003F018F836
:102A100000F00EF818B107FA04F62E43F5B23C2088
:102A200003F00EF8641C082CE8DB2846BDE8F081B2
:102A30001FB50020019003900120064C00900290E9
:102A40006946204600F0E2F90121204600F0CEFA66
:102A500004B010BD0008014010B500F016F8CC20FD
:102A600000F05FF8BE2000F05CF8FFF7C1FF0446FD
:102A7000FFF7BEFF44EA002000B203F06DFCBDE8A2
:102A800010406FF0030103F0ABBE10B500F02AF860
:102A90004FF4F07002F0D4FF00F010F8462002F07E
:102AA000CFFFFFF7C5FF30B100244FF4CD7002F027
:102AB000C7FF204610BD0124F7E700001FB5002026
:102AC00002900120064C0090019003906946204638
:102AD00000F09CF901221146204600F08CFA1FBD3F
:102AE000000801401FB5002002900120064C009014
:102AF000019003906946204600F088F900220121E8
:102B0000204600F078FA1FBD0008014010B5FFF71D
:102B1000BCFFCC2000F005F8BDE810404420AFF326
:102B2000008070B500240546012606FA04F028420C
:102B300008D0FFF7D7FF012002F082FFFFF7BEFFAA
:102B40003C2007E0FFF7CEFF3C2002F079FFFFF7C3
:102B5000B5FF022002F074FF641C082CE5DB70BD99
:102B60007047000010B58AB001F074FF00210823FF
:102B70003CA2084602F070F83E4CA06803F04EFA02
:102B8000CDE900013CA2162103A8FDF78DFB062329
:102B900003AA1021002002F05FF8E06803F03EFA7B
:102BA000CDE9000137A2162103A8FDF77DFB06231E
:102BB00003AA1821002002F04FF8207830B1012834
:102BC00007D0022838D0032809D147E0062330A2D5
:102BD00001E0062332A22021002002F03DF86069C6
:102BE00003F01CFACDE9000130A2162103A8FDF77D
:102BF0005BFB062303AA2821002002F02DF8002207
:102C000009A92E4800F05EFF22699DF825009DF875
:102C100026108DE807009DF8243029A2162103A86C
:102C2000FDF742FB062303AA3021002002F014F82E
:102C300001F018FF0AB010BDE06803F051FB034635
:102C400026A2162103A8FDF72FFB062303AA28219D
:102C5000002002F001F8062322A2E5E7062325A2C0
:102C6000B9E7000042696F2D496E63756261746F48
:102C7000720000000C0000204E6F773A25352E318F
:102C8000662043005365743A25352E316620430093
:102C90005374617475733A2049444C450000000038
:102CA0005374617475733A2052554E005049443A3A
:102CB000252B352E316625250000000088050020D3
:102CC000253032753A253032753A2530327520522A
:102CD000756E3A25346C7520730000005365743AA4
:102CE00020256400496E7075742054656D702E2E19
:102CF0002E0000005374617475733A20414C4152A8
:102D00004D00000072B6FEE710B590F821100022C9
:102D1000022905D00421816380F82020012010BD04
:102D200001680B6823F00E030B6001680B6823F049
:102D300001030B6090F84030C46B012101FA03F3EA
:102D4000636080F8211080F82020104610BD00003C
:102D500010B590F821100024022903D004218163CA
:102D600001243DE001680A6822F00E020A60016851
:102D70000A6822F001020A601A4A0168914201D1F0
:102D8000012121E0174A1432914201D110211BE0A8
:102D9000144A2832914201D1891515E0114A3C327A
:102DA000914201D189140FE00E4A5032914202D172
:102DB0004FF4803108E00B4A6432914202D14FF463
:102DC000801101E04FF08071064A083A51600121FC
:102DD00080F82110002180F82010416B01B1884754
:102DE000204610BD0800024070B5044600F008F906
:102DF0000546601C02D004480078044400F000F945
:102E0000401BA042FAD370BD400000202DE9F84FCE
:102E1000DFF8B8910024A9F1040B23460F2709F12C
:102E2000040AABF1040EC9E00125A5402A40AA42DC
:102E30007DD1674ED1F804C0ACEB0608B44532D062
:102E400014DCBCF1030F3AD009DCBCF1000F2AD02E
:102E5000BCF1010F1CD0BCF1020F31D11DE0BCF15F
:102E6000110F17D0BCF1120F2AD119E0B8F5881F45
:102E700019D006DCB8F5803F15D0B8F5801F1FD1FA
:102E800011E0B8F5001F0ED0B8F5041F18D10AE004
:102E9000CB6815E0CB681B1D12E0CB6808330FE050
:102EA000CB680C330CE08B682BB1012B4FF008037F
:102EB00003D0456104E0042302E0056100E0002343
:102EC000FF2A01D8064601E000F104064FEA840516
:102ED00001D9A5F12005D6F8008007FA05FC28EAFB
:102EE0000C0803FA05F548EA0508C6F800804D68A5
:102EF000ED0062D5374DAE6946F00106AE61AD69B1
:102F000024F0030605F001050095334D06EB050C92
:102F1000DCF80850A607360F07FA06F825EA080578
:102F2000DFF8B880404503D14FF0000817E044E0D7
:102F3000DFF8AC80404502D14FF001080FE0DFF828
:102F4000A480404502D14FF0020808E0DFF89880E5
:102F5000404502D14FF0030801E04FF0040808FAA1
:102F600006F848EA0508CCF808804D68D9F80060F2
:102F7000ED024D4601D5164300E096432E604D68A4
:102F8000DAF80060AD02554601D5164300E09643DD
:102F90002E604D68DBF80060AD035D4601D5164339
:102FA00000E096432E604D68DEF80060ED03754644
:102FB00001D5164300E096432E60641C0D682A4636
:102FC000E5407FF431AFBDE8F88F00000804014010
:102FD00000001110001002400000014000080140F4
:102FE000000C0140001001400014014080680840BE
:102FF00000D0012070470AB1016170470904FBE766
:1030000001488068704700004000002070B504004F
:1030100025D094F83D00002520B984F83C50204686
:1030200000F050F9242084F83D002068016821F068
:10303000010101602068016841F4004101602068DD
:10304000016821F40041016000F066FB4D4A6168AF
:10305000914201D84C4900E04C49884201D20120FC
:1030600070BD4B492368B0FBF1F15E6826F03F0666
:103070000E435E606368934206D94FF496735943DA
:103080004FF47A73B1FBF3F12368491C1E6A26F0F2
:103090003F06314319626168914210D84900401ED1
:1030A000B0FBF1F2521CC2F30B02042A01D204203D
:1030B00022E0B0FBF1F0401CC0F30B001CE0A26862
:1030C000F2B301EBC10303EB0116431EB3FBF6F3AE
:1030D0005B1C43F480431B0549D092B301EBC10252
:1030E00002EB0111401EB0FBF1F0401CC0F30B00DD
:1030F00040F4804040F400402168CA694CF6FF73F8
:103100009A431043C861D4E907100143206802685C
:1031100022F0C00211430160D4E903010143206899
:10312000826848F2FF339A4311438160D4E9050174
:1031300008432168CA6822F0FF021043C86001E01A
:103140000EE016E02068016841F00101016025648D
:10315000202084F83D00256384F83E50002070BD97
:1031600001EB4106431EB3FBF6F35B1CB3E7012002
:10317000C2E701EB4101401EB0FBF1F0401CC0F37F
:103180000B00B7E7A086010080841E0000093D0007
:1031900040420F002DE9FF4F83B09A46DDE91197B9
:1031A00093460446DDF84080FFF72AFF054694F871
:1031B0003D0020287FD11923012240492046009557
:1031C00001F016FA002876D194F83C00012872D05C
:1031D000012084F83C0020680168C90703D1016818
:1031E00041F0010101602068016821F40061016083
:1031F000212084F83D00402084F83E00002626640B
:10320000C4F82480A4F82A90608D20852C48E062C0
:10321000CDE9007553465A462046049901F068F9F5
:1032200070B930E02A463946204601F087FA58B195
:10323000206C042804D12068016841F40071016009
:10324000012007B0BDE8F08F606A2168007808614E
:10325000606A401C6062218D491E89B22185628DA1
:10326000521E628522685369DB435B070BD469B148
:1032700000781061606A401C6062208D401E2085CD
:10328000608D401E6085208D0028CBD12A463946AE
:10329000204601F081F90028CAD154F83D0B01689D
:1032A00041F400710160202004F81E09E67766777A
:1032B0000020C6E7FFE70220C3E70000020010007D
:1032C0000000FFFF10B586B000210091019102912E
:1032D000039100680F4988421AD10F4CA06940F051
:1032E0000800A061A069694600F008000490C020B1
:1032F000009012200190032003900848FFF786FDFC
:10330000E06940F40010E061E06900F4001004900E
:1033100006B010BD0054004000100240000C0140F7
:1033200002488168027811448160704740000020A3
:10333000074810B5016841F010010160032000F05A
:1033400075F80F2000F006F800F024F8002010BDFA
:103350000020024070B50D4D04464FF47A71287874
:10336000B1FBF0F00A490968B1FBF0F000F0EDFCA8
:1033700048B9102C07D200222146501E00F036F822
:1033800000206C6070BD012070BD00004000002076
:103390004C0000200C4808B5816941F001018161B1
:1033A000816901F001010091C16941F08051C16161
:1033B000C06900F0805000900448416821F0E0614D
:1033C00041F00071416008BD001002400000014062
:1033D000002809DB00F01F02012191404009800014
:1033E00000F1E020C0F8001170470000F0B40E4B6F
:1033F0001B680C46C3F30223C3F10705042D00D953
:103400000425191D072901D2002300E0DB1E012637
:1034100006FA05F1491E214099409E40761E16404D
:103420003143F0BC02F05FBA0CED00E0064900F059
:10343000070208684FF6FF03184040EA0220034ADB
:1034400010430860704700000CED00E00000FA0532
:10345000014901200862704700000E4210B5014684
:103460000020234C012922D0022939D010291DD156
:1034700061682268D20119D51E48C1F38342C9038D
:10348000805C0AD561681B4AC1F34041921E515CC1
:10349000194AB2FBF1F1484301E018494843616819
:1034A000490203D440000321B0FBF1F010BD226AB1
:1034B000C2F30121012903D1920701D5C80310BD30
:1034C000022905D1626A920702D549F6404010BD33
:1034D0000329FCD121688903F9D54FF2244010BD9E
:1034E00000F02AF96168C1F38131491C4900DBE72A
:1034F00000100240C070000800127A0000093D0070
:103500002DE9F84305460078354CC00754D0E069F2
:103510000026C00008D4E06940F08050E061E06916
:10352000012600F0805000902E480168C90512D491
:103530000168804641F480710160FFF761FD074634
:1035400005E000BFFFF75CFDC01B642823D8D8F856
:103550000000C005F6D5206A10F4407021D0A9887B
:1035600001F4407181421CD0206A1F49012220F4DD
:1035700040700A6000220A602062C00711D0FFF785
:103580003FFD074641F2883808E000BFFFF738FDED
:10359000C11B414502D90320BDE8F883206A80079A
:1035A000F4D5206A696820F44070084320621EB197
:1035B000E06920F08050E0612878800705D56068D8
:1035C000A96820F44040084360602878C00605D50B
:1035D0006068E96820F48000084360600020DBE751
:1035E0000010024000700040400442422DE9F047C4
:1035F0000F46050061D0434E306800F00700B84226
:1036000009D2306820F0070038433060306800F09D
:103610000700B84251D128683B4C810712D54007BA
:1036200003D5606840F4E06060602878000703D547
:10363000606840F4605060606068A96820F0F00045
:10364000084360602878C00728D06868012810D037
:103650002168022810D0890700292EDA616821F03C
:10366000030101436160FFF7CBFC804641F28839DA
:103670000DE021688903EFE78901EDE7FFF7C0FC62
:10368000A0EB0801494502D90320BDE8F087606836
:10369000696800F00C00B0EB810FEFD1306800F0EA
:1036A0000700B8420BD9306820F00700384330607B
:1036B000306800F00700B84201D00120E5E7287823
:1036C000400705D56068E96820F4E0600843606061
:1036D0002878000706D56068296920F4605040EA20
:1036E000C100606000F038F86168084AC1F3031156
:1036F000515CC8400649086006480068FFF72AFE8A
:103700000020C2E70020024000100240D0700008F4
:103710004C00002044000020044805490068496826
:10372000044AC1F30221515CC84070474C0000209C
:1037300000100240E070000804480549006849682C
:10374000044AC1F3C221515CC84070474C000020BC
:1037500000100240E07000080E4A51680E4801F067
:103760000C03042B11D0082B0FD10C48C1F3834359
:10377000C903C05C0AD55168084AC1F34041921E92
:10378000515C054A5043B0FBF1F07047044948438F
:10379000704700000010024000127A00AE7000086E
:1037A00000093D002DE9F84F040070D02078C04D8D
:1037B000C00749D06868C0F38100012807D0686855
:1037C000C0F38100022809D16868C00306D52868C3
:1037D000800339D560680028E7D035E06068B0F52F
:1037E000803F0BD010B1B0F5A02F11D0286820F485
:1037F00080302860286820F4802002E0286840F4A7
:1038000080302860606890B1FFF7FAFB06460AE056
:10381000286840F480202860F0E700BFFFF7F0FB45
:10382000801B642873D828688003F7D50CE0FFF765
:10383000E7FB064605E000BFFFF7E2FB801B6428BC
:10384000F0D828688003F7D420789A4E80074FF08C
:1038500001094FF0000839D5686810F00C0F07D047
:103860006868C0F38100022809D16868C00306D4E3
:103870002868800714D52069012808D110E0206944
:10388000B0B1C6F80090FFF7BBFB074605E00AE1C0
:10389000FFF7B6FBC01B0228C4D828688007F7D5FD
:1038A0002868616920F0F80040EAC10028600DE056
:1038B000C6F80080FFF7A4FB074604E0FFF7A0FB73
:1038C000C01B022823D828688007F7D42078000777
:1038D0002CD57948A169D9B1C0F80090FFF790FBC9
:1038E000074604E0FFF78CFBC01B02280FD8686A6C
:1038F0008007F7D571484FF4FA510068B0FBF1F03A
:10390000009000BF0098411E0091FAD20EE080E0C6
:10391000C0F80080FFF774FB074604E0FFF770FB78
:10392000C01B022875D8686A8007F7D42078400742
:1039300060D5E8690027C00008D4E86940F08050ED
:10394000E861E869012700F0805000905C48016858
:10395000C90513D40168834641F480710160FFF703
:103960004FFB824606E000BFFFF74AFBA0EB0A00D0
:1039700064284ED8DBF80000C005F5D5E0680128C2
:103980000AD008B1052813D0286A20F00100286267
:10399000286A20F0040002E0286A40F00100286252
:1039A000E06841F2883B98B1FFF72AFB82460BE0C2
:1039B000286A40F004002862EEE700BFFFF720FB12
:1039C000A0EB0A0159455AD8286A8007F6D50CE0C1
:1039D000FFF716FB824605E0FFF712FBA0EB0A019A
:1039E00059454CD8286A8007F6D41FB1E86920F001
:1039F0008050E861E06988B36968C1F381010229F8
:103A000044D00228C6F8608004D0FFF7F9FA0446D3
:103A100038E034E0FFF7F4FA074604E0FFF7F0FA85
:103A2000C01B02282BD828688001F7D4206AB0F583
:103A3000803F05D16868A16820F4003008436860C1
:103A4000D4E908010843696821F4741108436860E7
:103A5000C6F86090FFF7D4FA044606E025E000BF00
:103A6000FFF7CEFA001B022809D828688001F7D595
:103A70001BE000BFFFF7C4FA001B022802D9032095
:103A8000BDE8F88F28688001F4D40EE00128F7D053
:103A90006868226A00F48031914204D1616A00F4BE
:103AA0007010884201D00120EAE70020E8E700001A
:103AB0000010024000004242800442424C000020BC
:103AC000007000402DE9F04791460C465FEA00087F
:103AD0004AD084B3D8F800004068400744D4404638
:103AE00001F02CFB4FF461620546B0FBF2F1B0FB34
:103AF000F2F302FB13503C23B0FBF3F0B5FBF2F6FC
:103B0000607002FB1650B0FBF3F203FB1200A070D2
:103B1000182931D31820B1FBF0F7B1FBF0F200FB0C
:103B200012102070404601F002FB411C04D0A84254
:103B300002D9461B02E017E04FF0FF36A7EB071053
:103B400000EB4000C0EB001005EBC01529464046D5
:103B500001F043FB40B9701C01D0711900E03146FF
:103B6000404601F026FB10B10120BDE8F087394640
:103B7000404601F04FFA00E02170B9F1000F0BD080
:103B8000207801F03CFA2070607801F038FA60701B
:103B9000A07801F034FAA0700020E6E770B50400C8
:103BA00003D0607C002610B105E0012070BD2674B2
:103BB000204600F03DF802206074204600F0A8F88E
:103BC000042550BB204601F07CFA30BB20684168D8
:103BD00021F007014160A06820B11448016821F07C
:103BE000010101601148001F0168A26821F46071A1
:103BF000114301606068411C04D10120FFF72EFCD5
:103C000058B1401E2268C0F303419160216880B220
:103C1000C860204601F070FA08B16574C5E7E67324
:103C200001206073A0736074002070BD306C004090
:103C300008B50068084988420DD1FFF709FC07481C
:103C4000C16941F00061C161C069054900F00060CF
:103C500000900120086008BD0028004000100240CC
:103C60003C0442422DE9F0410D46040024D01DB32E
:103C7000207C012823D04FF0010884F81080022016
:103C800060742878EAB101F0B1F94FF4616100FB8A
:103C900001F6687801F0AAF9C0EB001006EB800687
:103CA000A87801F0A3F935182946204601F095FAC5
:103CB0000026042710BB0FE00120BDE8F0810220A0
:103CC000FBE74FF4616148436978C1EB011100EBF8
:103CD0008100A9784518E7E72068416821F00501CF
:103CE0004160204601F023FA411C0AD0A84208D2C4
:103CF00006490144204601F05CFA10B1677426744D
:103D0000DAE784F8118026740020D6E7805101009C
:103D100070B504000AD02068416821F008014160B4
:103D2000FFF76EF905464FF47A7608E0012070BD82
:103D3000FFF766F9401BB04201D9032070BD20682F
:103D400040680007F4D5002070BD10B5401EB0F1EA
:103D5000807F01D3012010BD4FF0E02460610F216E
:103D6000601701F0C0FD0020A06107202061002045
:103D700010BD000070B590F83C20012A26D0012427
:103D800080F83C40022280F83D2003685A689D6814
:103D900022F070060A6832435A600D4B02689A425C
:103DA00008D0B2F1804F05D00A4B9A4202D00A4B9C
:103DB0009A4204D1496825F080031943916080F844
:103DC0003D40002180F83C10084670BD022070BDC7
:103DD000002C0140000400400008004010B5040021
:103DE00003D094F83D0010B107E0012010BD002081
:103DF00084F83C00204600F01FF8022084F83D00C3
:103E0000211D206801F042FA012084F8460084F860
:103E10003E0084F83F0084F8400084F8410084F8B4
:103E2000420084F8430084F8440084F8450084F894
:103E30003D00002010BD000008B50068064988421A
:103E400008D10648C16941F00201C161C06900F0B2
:103E50000200009008BD0000000400400010024075
:103E600000B585B000210091019102910391006895
:103E70000B49884212D10B48816941F004018161EC
:103E80008069694600F004000490C0200090022080
:103E90000190012003900448FEF7B8FF05B000BD73
:103EA00000040040001002400008014070B50446C4
:103EB00090F83C0000260D4601280FD0012084F820
:103EC0003C006AB1042A1DD0082A2FD00C2A3FD00A
:103ED0000126002084F83C00304670BD022070BDF1
:103EE000206801F027FA2068816941F008018161AA
:103EF0002068816921F004018161206881692A6953
:103F0000114311E0206801F03DFA2068816941F415
:103F1000006181612068816921F48061816120688C
:103F200081692A6941EA02218161D2E7206801F0B2
:103F300055FA2068C16941F00801C1612068C16972
:103F400021F00401C1612068C1692A69114311E0AF
:103F5000206801F06FFA2068C16941F40061C16115
:103F60002068C16921F48061C1612068C1692A6942
:103F700041EA0221C161ACE710B5040003D094F816
:103F80003D0010B107E0012010BD002084F83C0086
:103F9000204600F01EF8022084F83D00211D206814
:103FA00001F074F9012084F8460084F83E0084F89A
:103FB0003F0084F8400084F8410084F8420084F80F
:103FC000430084F8440084F8450084F83D00002054
:103FD00010BD704710B50446022249B104290ED025
:103FE000082913D094F84100012816D0012010BDF3
:103FF00094F83E000128F9D184F83E200FE094F8AF
:104000003F000128F2D184F83F2008E094F84000F6
:104010000128EBD184F8402001E084F841200122FE
:10402000206801F06FF90F492068884203D1426C83
:1040300042F4004242642068884208D0B0F1804FC8
:1040400005D00949884202D00849884204D18168D4
:1040500001F00701062903D0016841F00101016068
:10406000002010BD002C014000040040000800406A
:1040700070B5044690F83C00012812D0012584F860
:104080003C50022084F83D00204601F0F5F9010083
:104090004FF0000007D084F83D5084F83C00012028
:1040A00070BD022070BD2168CA6822F04002CA605B
:1040B0002168CA6822F48042CA6084F83D5084F8BE
:1040C0003C00002070BD704770470000F8B50168E3
:1040D00004460868CA684B6910F00F0F4FF00005DE
:1040E00059D003F0010602F49077374365D0C10739
:1040F00005D0D10503D5616C41F001016164410730
:1041000005D5D90703D0616C41F0020161648107D4
:1041100005D5D90703D0616C41F004016164010742
:1041200007D502F02001314303D0616C41F0080152
:104130006164616C00293AD0800604D5900602D5EE
:10414000204601F075FA20684069616CC0F3801068
:10415000090700D460B3204601F0FFF920684069E8
:10416000400621D52068143050E8001F21F040019E
:1041700040E80012002AF5D1E06BA8B16D49416317
:10418000E06BFEF7E5FD002811D0E06B416B01B05C
:10419000BDE8F040084783060FD593060DD52046AD
:1041A000BDE8F84001F044BA2046FFF78DFFF8BDA6
:1041B0002046FFF789FF6564F8BD266B2023012E9A
:1041C0007CD1C6067AD5D60678D5086848680090AE
:1041D00048694FF00206400640D5E16B0868406828
:1041E0000004000CE8D0A28D8242E5D9E085886900
:1041F00020282DD020680C3050E8001F21F4807159
:1042000040E80012002AF5D12068143050E8001F61
:1042100021F0010140E80012002AF5D12068143095
:1042200050E8001F21F0400140E80012002AF5D1BB
:1042300084F84230256320680C3050E8001F21F0DC
:10424000100140E80012002AF5D1E06BFEF75CFD9A
:104250006663A08DE18D401A81B22AE0A08DE18DC8
:10426000401A81B2E08D0028A6D00029A4D022688F
:104270000C3252E8000F20F4907042E80007002F43
:10428000F5D12068143050E8002F22F0010240E8F8
:104290000027002FF5D184F84230256320680C30C8
:1042A00050E8002F22F0100240E80023002BF5D147
:1042B00066632046FFF707FFF8BDFFE705062BD52D
:1042C000150629D594F841002128F5D1A068B0F54C
:1042D000805F01D12069B0B1206A411C2162216850
:1042E00000784860E08C401E0004000CE084E3D1BC
:1042F0002068C16821F08001C1602068C16841F078
:104300004001C160D8E7206A0088C0F30800486017
:10431000206A801C2062E5E74006CDD55006CBD54B
:10432000CA68204622F04002CA6084F8413000F09A
:10433000C6F8C1E74B55000870B5040004D094F8E6
:104340004100002510B106E0012070BD84F8405006
:10435000204600F023F8242084F841002068C1683A
:1043600021F40051C160204601F00CFA2068016977
:1043700021F4904101612068416921F02A014161E5
:104380002068C16841F40051C1606564202084F850
:10439000410084F842006563002070BD30B585B0EF
:1043A0000024009401940294039400681849884200
:1043B0002CD11848816941F480418161816901F4FF
:1043C00080410491816941F0040181618069124D4D
:1043D00000F0040004904FF400700090022001905F
:1043E0000320039069462846FEF710FD2815CDE905
:1043F0000004694628460294FEF708FD0022114693
:104400002520FEF7F3FF2520FEF7E2FF05B030BDC3
:1044100000380140001002400008014070472DE9BB
:10442000F843044690F84100984616460D46202869
:1044300002D00220BDE8F88385B17EB1002060641F
:10444000212084F84100FEF7DBFDA6848146E68446
:10445000A0682027B0F5805F02D003E00120E9E7E3
:10446000206910B12E4600250EE000260CE08021C8
:10447000204601F0E3F9A8B9C6B116F8010B21688E
:104480004860E08C401EE084E08C4B464FF0000218
:10449000CDF800800028EAD14FF04001204601F01D
:1044A000CDF940B184F841700320C3E735F8020B21
:1044B000C0F30800E3E784F841700020BAE77047D2
:1044C000FEE701684A69D24352050FD46FF4806257
:1044D0004A61002140F8301F202242738173026933
:1044E00042F004020261017301207047002070470E
:1044F0002DE9F843044600680D46DDE90897016898
:104500009846164641F4807101604B4600224FF0F8
:1045100001112046009700F06BF848B12068006850
:10452000C00502D54FF4007020640320BDE8F88375
:10453000216805F0FE0008613B464A4615492046C1
:1045400000F09EF888B920684169806900903A4679
:104550004946204600F0F2F848B1206C042804D106
:104560002068016841F4007101600120DEE7F5B2C6
:10457000B8F1010F09D02168300A08613A4649466E
:10458000204600F0DBF80028E7D120680561002014
:10459000CCE700000200010070B516460D46044647
:1045A0001EE02046FFF78DFF08B1012070BD681C9A
:1045B00016D0FEF725FD801BA84200D885B92068DB
:1045C0004069C04340070BD5002044F8300F20213C
:1045D0006173A073216941F0200121612073E4E738
:1045E00020684069C0434007DBD4002070BD000054
:1045F0002DE9F047984617460D460446C1F3074695
:10460000DDF820902AE000BFB8F1FF3F26D0FEF78A
:10461000F7FCA0EB0901414502D8B8F1000F1DD10C
:104620002068012E16D0806925EA00000004000CE5
:1046300012D00020B84211D1002044F8300F2021C0
:104640006173A073216941F0200121612073012071
:10465000BDE8F0874069E7E70120EBE72068012E1D
:104660000AD0806925EA00000004000C06D0002072
:10467000B842C9D00020EBE74069F3E70120F7E733
:104680002DE9F047984616460D4604464FF00009BE
:104690004FF0200AC1F3074723E020684069C04378
:1046A000400515D42068016841F40071016021685B
:1046B0006FF480604861C4F8309084F83DA084F8BD
:1046C0003E90216C41F00401216484F83C9021E08B
:1046D000701C06D0FEF794FCA0EB0800B04203D893
:1046E00016B1012F1FD021E02068012F15D080695D
:1046F00025EA00000004000C18D000BF44F8309FE9
:1047000084F80DA084F80E90216941F02001216108
:1047100084F80C900120BDE8F087406925EA00008C
:104720000004000CEAD12068406901E0206880693B
:1047300025EA00000004000CAFD1ECE770B5164686
:104740000D4604461EE02046FFF7BBFE08B10120DF
:1047500070BD681C16D0FEF753FC801BA84200D821
:1047600085B920684069C04300060BD5002044F895
:10477000300F20216173A073216941F02001216174
:104780002073E4E720684069C0430006DBD40020C2
:1047900070BD70472DE9F84FFEF732FC244E71686A
:1047A000401A322842D30025DFF888A0DFF888803D
:1047B000A94640F6034B0022594647464046FEF7BD
:1047C0001AFC3AF8151001223846FEF714FC484648
:1047D000CDF80090401C0090C828FBD3B846154F78
:1047E0000024BF1F404637F81410FEF7FFFB0128D6
:1047F0000AD0641CE4B2032CF4D36D1CEDB2042D7A
:10480000D9D3FF20307011E00A4905EB450008318B
:104810000844045DFF2CF0D03078844206D0347018
:10482000FEF7EEFB70602046BDE8F88FFF20FBE747
:104830000000002098700008000C01402DE9F043B2
:1048400085B000252C480095019502950395816956
:1048500041F010018161816901F0100104918169C9
:1048600041F020018161816901F020010491816999
:1048700041F004018161816901F0040104918169C1
:1048800041F0080181618069DFF8708000F0080064
:1048900040F603460490002231464046FEF7ABFB4B
:1048A0000122DFF85C90170239464846FEF7A3FB69
:1048B0000124CDE90045694648460294FEF7A6FA70
:1048C0000096CDE90145694640460394FEF79EFAFD
:1048D0004FF4E040CDE90005694602944046FEF7FA
:1048E00095FA0097CDE90145694648460394FEF7DD
:1048F0008DFA05B0BDE8F08300100240000C0140C5
:10490000000801400D4810B50B4901600C49416099
:1049100000214FF480428160C0E90312416181614E
:10492000C1610162FEF772FB002803D0BDE81040B0
:10493000FEF7E8B910BD0000005400403405002027
:10494000801A06000A4810B5084901604FF0FF318F
:1049500041604FF480718160FFF720F9002803D097
:10496000BDE81040FEF7CEB910BD000000280040A1
:104970008805002010B58EB0142107A8FBF745FE6E
:1049800000240C941C2168460D94FBF73EFE214840
:104990001F49C0E900144FF6FF71C0E902410461EC
:1049A0008461FFF71BFA08B1FEF7ACF91948FFF76D
:1049B000E3FA08B1FEF7A6F9079407A91548089489
:1049C000FFF756FB08B1FEF79DF90C940CA91148AE
:1049D0000D94FFF7CFF908B1FEF794F96020CDE907
:1049E00000040294002269460A480494FFF75EFA24
:1049F00008B1FEF787F9042269460648FFF756FA20
:104A000008B1FEF77FF90348FFF72AFA0EB010BD90
:104A1000000400409C0500200C4810B50A490160C4
:104A20004FF4E1314160002181600C22C160C0E996
:104A300004128161C161FFF77FFC002803D0BDE84B
:104A40001040FEF75FB910BD00380140E4050020BA
:104A5000FEE7FEE74FF480610148FBF7B4BD0000BC
:104A60005000002070B50E4E002400BF04F1B000CD
:104A7000C0B200F011F9002000F00EF9102000F093
:104A80000BF9002505EBC410305C00F017F96D1C24
:104A9000EDB2802DF6D3641CE4B2082CE6D370BDD1
:104AA0005000002030B580280FD240290DD201F0EF
:104AB00007050123AB40054CC90800EBC110215C80
:104AC0000AB1194300E09943215430BD5000002041
:104AD00010B56420FEF788F9AE2000F0DDF8202044
:104AE00000F0DAF8002000F0D7F8B02000F0D4F899
:104AF000C82000F0D1F8002000F0CEF8102000F01F
:104B0000CBF8402000F0C8F8812000F0C5F8FF2065
:104B100000F0C2F8A12000F0BFF8A62000F0BCF819
:104B2000A82000F0B9F83F2000F0B6F8A42000F06B
:104B3000B3F8D32000F0B0F8002000F0ADF8D52095
:104B400000F0AAF8F02000F0A7F8D92000F0A4F8AF
:104B5000222000F0A1F8DA2000F09EF8122000F0E8
:104B60009BF8DB2000F098F8202000F095F88D20CD
:104B700000F092F8142000F08FF8AF2000F08CF8CD
:104B8000BDE81040FFF766BF2DE9FF5F8846062BA2
:104B900035D0082B31D1202A00D22022203AD0B2A1
:104BA0005F2800D300202A49002501EB001B00BF2D
:104BB0000BEB05001BF805A090F808900098002466
:104BC00010EB05062AFA04F000F0010208EB0407D6
:104BD000F9B2F0B2FFF766FF29FA04F000F0010223
:104BE0000837F9B2F0B2FFF75DFF641CE4B2082C9D
:104BF000E8D36D1CEDB2082DDAD3BDE8FF9F202A63
:104C000000D22022203AD0B25F2800D300201149E0
:104C100000EB4000002501EB400900BF009819F8A7
:104C20000560002410EB050726FA04F000F00102ED
:104C300008EB0400C1B2F8B2FFF734FF641CE4B221
:104C4000082CF1D36D1CEDB2062DE7D3D5E700009B
:104C5000A26A0008686800082DE9F0411E46154662
:104C60000F46044610E0334639462046FFF78CFFD6
:104C7000A019C4B2A0196D1C802805D90024062EE5
:104C800007D010203844C7B22A78002AEBD1BDE8FB
:104C9000F0810820F6E7000001B584B0012164220C
:104CA00004A88DE807000B46002278210248FEF791
:104CB00071FA05B000BD00003405002001B584B0D4
:104CC0000121642204A88DE807000B4640227821C8
:104CD0000248FEF75FFA05B000BD00003405002071
:104CE0002DE9F05F0446C06892464FF400080A467A
:104CF000404502DA0020BDE8F09F5146104601F021
:104D000093FC06463A4F3B49206901F085FB6168F8
:104D100001F024FA4FEA47090546484501D380F0DF
:104D200000453946304601F043FC04D33248314651
:104D300001F03EFC01D2002519E03046E16801F0A7
:104D40006BFBA16901F096F92946A06101F030FCE6
:104D500000D2A56185F000400546A16901F028FC5C
:104D600000D2A561A169606801F056FB0546314695
:104D7000206801F051FB83465046E16901F054FC84
:104D80000146A06880F0004001F046FBE16801F0B8
:104D9000E5F9074629465846C4F81CA001F06AF90F
:104DA000394601F067F92062216901F001FC0BD25C
:104DB00020692062464507DB3046E16801F02CFBA4
:104DC000A16901F026FCA0616169206A01F0F0FA96
:104DD0000BD2606920624E4507D33046E16801F08E
:104DE0001BFBA16901F015FCA061206A83E70000AC
:104DF00000004040CDCC4C3F000040C070B50DF1EC
:104E0000100C9CE8700080E87E0000218161C16187
:104E1000016270BD00218161C1610162704770470C
:104E20002DE9F041FF2812D02A4C00250A2861788C
:104E30000FD004F130020B2817D02378022B06D1B3
:104E4000092804D8042902D25054491C6170BDE8D5
:104E5000F0812078022804D002202070657025633C
:104E6000F5E70029F3D0491EF0E720780126022853
:104E700006D02078012827D0267025612562E6E734
:104E8000E1B10020034607E0D75C00EB800007EBB0
:104E900040005B1C80B2DBB28B42F5D3032905D303
:104EA00001F072FA0C4901F059F901E001F06CFAD5
:104EB0000A490144B1F1D47F00D8E06026706570E2
:104EC0000748FFF7A7FFD8E725700248401DFDF708
:104ED00063FDD2E70C00002000002041000060BF0D
:104EE0001005002070B52748017800291CD0002546
:104EF0000570254E042225A13046FBF719FB254CF1
:104F000098B1042224A13046FBF712FB68B30622B5
:104F100023A13046FBF70CFB00282FD022A000BFB6
:104F200000F04AFB2448058070BD301D00F072FD82
:104F300000F02CFF214906460844B0F1D47F12D876
:104F4000E6601F48FFF766FF2078012802D00120A5
:104F500020702561304601F061F802460B4619A029
:104F600000F02AFBDEE71AA0DAE725700948401DA9
:104F7000FDF712FD256119A02562D1E700F0C2FB03
:104F8000D0E7000008000020500400205345543AA8
:104F9000000000000C00002053544F50000000009F
:104FA00053544154555300004552523A554E4B4EBE
:104FB0004F574E0D0A0000000A000020000060BF9D
:104FC000100500204F4B3A252E31660D0A000000D7
:104FD0004552523A52414E47450D0A004F4B3A5303
:104FE000544F505045440D0A00000000010901EBE8
:104FF000810100F00F0000EB4100C0B270470021BA
:1050000002E00A38C0B2491C0A28FAD2090740EA6D
:10501000116070472DE9F04104460025C07B627B9A
:10502000A37B42E0012A16D0032A14D0052A12D00D
:10503000072A10D0082A0ED00A2A0CD00C2A0AD02F
:10504000042A10D0062A0ED0092A0CD00B2A0AD026
:10505000022A0DD028E01F2B0CD30C2A05D10122E7
:105060001346401C20E01E2B04D30123521C1BE0DE
:105070001C2B02D203F1010316E011D183B29E076B
:1050800010D16426B3FBF6F706FB173636B94FF49A
:10509000C876B3FBF6F706FB17331BB91D2303E0F5
:1050A0001D2B01D1032201236D1C8D42BAD3D1B235
:1050B000E0736173DAB2A27300F050F82073BDE8B8
:1050C000F08170B50446FDF79BFF05464FF47A76F4
:1050D00006E0FDF795FF401BB04201D9032070BDEB
:1050E000206840688006F4D52068416841F01001CE
:1050F0004160002070BD000070B504460068416842
:1051000021F010014160FDF77BFF05464FF47A76F0
:1051100007E000BFFDF774FF401BB04201D9032038
:1051200070BD206840688006F4D5002070BD01681D
:10513000086A496A89B241EA00407047006881699B
:105140008AB2C1698BB2816989B28A4203D0C069CF
:1051500061F31F40704743EA02407047F0B5642492
:10516000C1EBC1030927A500072603EB011303299F
:10517000B3FBF7F100F5FA60114401440AD2401E76
:10518000B0FBF4F201EB9001B0FBF5F0891A084492
:10519000001D08E0B0FBF4F201EB9001B0FBF5F06C
:1051A000891A0844801CB0FBF6F106FB1100C0B25E
:1051B000F0BD70B50D4606460024FFF782FF48B9E2
:1051C0003168280C08623168A8B248623046FFF79F
:1051D00093FF00B10124204670BD70B50D46064610
:1051E0000024FFF76EFF48B93168280C88613168E8
:1051F000A8B2C8613046FFF77FFF00B10124204606
:1052000070BD7047FEF78CB870B594B02821684621
:10521000FBF7FBF914210AA8FBF7F7F90025012495
:105220000F951195052012950090CDE90254109527
:105230004FF48030019002260494CDE907604FF4CA
:10524000E01009906846FEF7ADFA08B172B6FEE7C5
:105250000F20CDE90A064FF48060CDE90C50022101
:105260000AA80E95FEF7C2F908B172B6FEE74FF430
:105270008070CDE90F400FA8FEF742F9002801D059
:1052800072B6FEE714B070BD70470000F0B502685A
:10529000194B1A4C1A4D4FF08047984205D0B8422E
:1052A00003D0A04201D0A84203D122F070064A6880
:1052B0003243984205D0B84203D0A04201D0A84260
:1052C00003D122F44074CA6822434C6922F0800260
:1052D000224302608A68C2620A688262984201D1EF
:1052E00009690163012141610169C90703D00169AD
:1052F00021F001010161F0BD002C014000040040DB
:105300000008004010B501F01F030121046A994014
:105310008C430462016A9A401143016210BD10B5CA
:10532000846842EA032224F47F440A4322438260D1
:1053300010BD000030B5036A026A22F00102026269
:105340004268846924F073050C682C4323F002053D
:105350008B682B430A4DA8420BD123F00805CB687C
:1053600022F440722B434D6923F0040315438A69EC
:105370002A434260846149684163036230BD000092
:10538000002C014030B5026A036A23F01003036267
:10539000436884690D6824F4E64444EA05248D6872
:1053A00022F0200242EA05120B4DA8420ED1CD6830
:1053B00022F0800242EA05124D6923F4406343EA79
:1053C00085038D6922F0400243EA850343608461CE
:1053D00049688163026230BD002C014030B5036A28
:1053E000026A22F4807202624268C46923F4007384
:1053F00024F073050C682C438D6843EA05230C4D9B
:10540000A8420ED1CD6823F4006343EA05234D6919
:1054100022F4405242EA05128D6923F4806342EA85
:1054200005124260C4614968C163036230BD000077
:10543000002C014030B5046A026A22F480520262F4
:105440004268C3690D6823F4E64343EA05238D6887
:1054500024F4005444EA0534064DA84204D14D69B1
:1054600022F4804242EA85124260C36149680164C5
:10547000046230BD002C014070B5036800249A68B6
:1054800022F070054A682A4322F007050A682A4379
:105490009A604A6812F00F0F31D11211082A2ED2E9
:1054A000DFE802F02E2E2E2E0B2127040B69D1E906
:1054B00002210068FFF733FF22E00A68052A10D0B6
:1054C0000268136A156A25F001051562026895697C
:1054D000096925F0F00545EA011191610068036250
:1054E0000EE0012070BD0A698968006800F00AF8C2
:1054F00006E00A698968006800F015F800E00124F8
:10550000204670BD10B5036A046A24F001040462E9
:10551000846924F0F00444EA021423F00A020A43E6
:105520008461026210BD10B5036A046A24F010049D
:105530000462846923F0A00324F4704444EA023234
:1055400043EA01118261016210BD10B5406A002179
:10555000C185C184FEF7B8FD10BD01680C3151E86A
:10556000002F22F4907241E80023002BF5D101684E
:10557000143151E8002F22F0010241E80023002BF2
:10558000F5D1016B012909D101680C3151E8002FD7
:1055900022F0100241E80023002BF5D1202180F8F1
:1055A00042100021016370470248002141800170D0
:1055B00070470000080000200FB4802110B503AB35
:1055C0000648029AFAF756FE002803DD81B2034826
:1055D00000F090F810BC5DF814FB0000900400206F
:1055E00030B51048017800291AD110490E4C0A68CC
:1055F0001168890614D55168CBB20A2B0AD00D2B3D
:10560000F6D041883F29F3D241886518491C418072
:105610002B70EDE742880021A154012202704180E5
:1056200030BD00000800002050040020E4050020E8
:1056300008B590F84210222901D0022008BD8268E6
:105640004FF480539A4201D1016921B1816A9A4293
:105650001BD04AB10AE00268816A5268C2F30802AC
:105660000A80816A891C08E0026972B10268526886
:1056700002F07F020A70816A491C8162C18D491E55
:105680000904090CC18503D01BE002685268F1E7E8
:105690000168CA6822F02002CA600168CA6822F460
:1056A0008072CA6001684A6922F001024A612021C1
:1056B00080F8421000214163026B012A03D0FEF7FB
:1056C000ADFE002008BD016301680C3151E8002FD8
:1056D00022F0100241E80023002BF5D101680A688E
:1056E000D20602D50A6849680091818DFEF7EBFC6D
:1056F000E7E700000A46014664230148FEF78FBE33
:10570000E40500202DE9F041104C88B0606900F0FC
:1057100085FC07468846E06800F080FC05460E469A
:10572000A06800F07BFC246902460B4607480DF197
:10573000100C401D817840788CE813008DE8E00162
:1057400003A0FFF739FF08B0BDE8F0810C0000208E
:10575000543A252E31662C5345543A252E31662C69
:105760005049443A252E31662C48543A2564252563
:105770002C434C3A256425252C52554E3A256C7500
:105780000D0A000070B5044600680169E26821F462
:105790004051114301612169A068084361690843D0
:1057A0002168CA6841F20C639A430243CA602068C8
:1057B0004169A26921F44071114341611E49206889
:1057C000884202D1FDF7B8FF01E0FDF7A5FF00EB2D
:1057D000C00101EB0012606864218000B2FBF0F3AD
:1057E000B3FBF1F36FF018067343B2FBF0F5B2FBB5
:1057F000F0F605EB8305322303EB0515B5FBF1F558
:10580000B6FBF1F605F0F00505EB0615B2FBF0F678
:10581000B2FBF0F0B0FBF1F06FF01802504306EB72
:10582000800003EB0010B0FBF1F0216800F00F00E6
:105830002844886070BD0000003801402DE9F8431D
:10584000984617460D460446089E24E0701C22D058
:10585000FDF7D6FBA0EB0800B0421AD8CEB1206805
:10586000C168490717D5802D15D0402D13D0016888
:10587000C94309070FD401680025406800902046FD
:10588000FFF76BFE0820606484F840500120BDE8FB
:10589000F8830320FBE72068006835EA000004D0A5
:1058A0000020B842D2D00020F1E70120F9E7000043
:1058B0000148FEF70BBC0000E4050020FEE74900AC
:1058C00050EAC12018BF04204A0D18BF40F0010063
:1058D00040F2FF72B2EB515F08BF40F002000128B6
:1058E00008BF052070470907090E002804DB00F1F6
:1058F000E02080F80014704700F00F0000F1E02075
:1059000080F8141D704740F2013200204FF0E04152
:1059100000F038BF024A0020110700F033BF00003A
:1059200001FDFFFF10B50446D1E9000100F002F8C7
:10593000206010BDF8B504460D466A4600F094F8A4
:1059400000987E30009000281EDC0022134620467E
:10595000294600F061FA17D0002140F608004FF008
:10596000000006462046294600F010FA044640F69C
:10597000080006EA00014FF0000034F0004004BFC8
:105980000220FAF771FE29E00098FF2828DB0021A9
:1059900008464FF0000000F440060022134620465F
:1059A000294600F005FB8CBF002501250220FAF7EF
:1059B0005BFE4FF0FF4446B1002D0CBF4FF40000DA
:1059C0004FF48000B04218BF084C042108464FF045
:1059D0000000002D04BF84F00040F8BD2046F8BD53
:1059E00020462946BDE8F84000F0D0B9FFFF7F7F90
:1059F00010B504460A46D4E90003194600F060F8E1
:105A0000C4E9000110BD30380A2801D201207047D6
:105A10000020704730B583B00446FAF720FE0546F3
:105A20000020CDE90000024621466846FBF73CFA1B
:105A30002846FAF719FEDDE9000103B030BD000089
:105A4000064A10B553680649064C0968B1FBF4F1E3
:105A500041435068C01A8842FBD310BD001000E0DB
:105A60004C00002040420F0010B514460022226076
:105A7000114A21F000439342A8BF10BD53EA00022F
:105A800008BF10BDB3F5801FA8BF226807DA362211
:105A900000F078FE6FF0350221F000432260DFF85D
:105AA0001CC06FF31E510CEB23531A4441F0FF51FD
:105AB00041F00051226010BD0000F07F02FCFFFFAA
:105AC0002DE9F04106460C4640F2FF75174635EACF
:105AD00014502BD000221346304600F09DF925D0FB
